:100000000C9446000C9450000C9450000C9450003A
:100010000C9450000C9450000C9450000C94500020
:100020000C9450000C9450000C9450000C94500010
:100030000C9450000C9450000C9450000C94500000
:100040000C9450000C9450000C9450000C945000F0
:100050000C9450000C9450000C9450000C945000E0
:100060000C9450000C9450000C9450000C945000D0
:100070000C9450000C9450000C9450000C945000C0
:100080000C9450000C9450000C94500011241FBE8E
:10009000CFEFD0E1DEBFCDBF0E946A000C947F009D
:1000A0000C94000086E087BB149A159A81E58DB9FF
:1000B00008958FB9779BFECF08959093900089B9EA
:1000C00088E18AB98EE08093950008955D9BFECF0C
:1000D0008CB9089584E190E00E945D0082E60E9460
:1000E00066000E9452001D988AEA0E9459008AEA1E
:1000F0000E9459001D9A1D981C981C9AF5CFF894DF
:02010000FFCF2F
:00000001FF
