:100000000C9446000C9450000C9450000C9450003A
:100010000C9450000C9450000C9450000C94500020
:100020000C9450000C9450000C9450000C94500010
:100030000C9450000C9450000C9450000C94500000
:100040000C9450000C9450000C9450000C945000F0
:100050000C9450000C9450000C9450000C945000E0
:100060000C9450000C9450000C9450000C945000D0
:100070000C9450000C9450000C9450000C945000C0
:100080000C9450000C9450000C94500011241FBE8E
:10009000CFEFD0E1DEBFCDBF0E946E000C947700A1
:1000A0000C94000086E087BB149A159A81E58DB9FF
:1000B00008958FB9779BFECF08959093900089B9EA
:1000C00088E18AB98EE08093950008955D9BFECF0C
:1000D0008CB908955F9BFECF8CB1089584E190E0C8
:1000E0000E945D00889880E00E9466000895F89460
:0200F000FFCF40
:00000001FF
