:100000000C9446000C945D000C945D000C945D0013
:100010000C945D000C945D000C945D000C945D00EC
:100020000C945D000C945D000C945D000C945D00DC
:100030000C945D000C945D000C945D000C945D00CC
:100040000C945D000C945D000C945D000C945D00BC
:100050000C945D000C945D000C945D000C945D00AC
:100060000C945D000C945D000C945D000C945D009C
:100070000C945D000C945D000C945D000C945D008C
:100080000C945D000C945D000C945D0011241FBE67
:10009000CFEFD0E1DEBFCDBF11E0A0E0B1E0EEE6F2
:1000A000F1E000E00BBF02C007900D92AA31B1074A
:1000B000D9F70E9470000C94B5000C94000080E801
:1000C00084BF089508959093900089B988E18AB912
:1000D0008EE08093950008955D9BFECF8CB90895C6
:1000E000CF93DF93CDB7DEB7DA950FB6F894DEBFC6
:1000F0000FBECDBF8BE090E00E94630060E071E036
:10010000CE018F579F4F0E94AE006FE071E0CE018D
:1001100001960E94AE007E018BE0E80EF11C81E8A2
:10012000C82ED12CCC0EDD1EEEE0CE0ED11C8E01E1
:100130000F5F1F4FF80181918F010E946C000E1517
:100140001F05C1F78E010F571F4FF80181918F01D5
:100150000E946C000C151D05C1F7E9CFFB01DC0105
:0E01600001900D920020E1F70895F894FFCF72
:10016E0048656C6C6F20576F726C64210A0D0042EB
:0A017E00796520627965210A0D0001
:00000001FF
